:100000000C9463000C948B000C948B000C948B006C
:100010000C948B000C948B000C948B000C94B40A01
:100020000C948B000C948B000C948B000C948B0024
:100030000C948B000C948B000C948B000C948B0014
:100040000C94710B0C948B000C94280E0C94AB0E3A
:100050000C948B000C948B000C948B000C948B00F4
:100060000C948B000C948B000000000024002700EF
:100070002A0000000000250028002B0000000000DE
:1000800023002600290004040404040404040202DA
:100090000202020203030303030301020408102007
:1000A0004080010204081020010204081020000012
:1000B0000007000201000003040600000000000029
:1000C00000008B015E0E11241FBECFEFD8E0DEBF13
:1000D000CDBF11E0A0E0B1E0E6E2F5E202C005909C
:1000E0000D92AE37B107D9F713E0AEE7B1E001C02A
:1000F0001D92A730B107E1F710E0C6ECD0E004C0D4
:100100002297FE010E948D12C23CD107C9F70E94BE
:10011000D10E0C9491120C940000EF92FF920F9369
:10012000DF93CF93CDB7DEB760970FB6F894DEBFFD
:100130000FBECDBFA82F002309F461C07E01089433
:10014000E11CF11C88E0F70111928A95E9F72983F7
:100150003A834B835C836D837E83AF83988780E291
:10016000801BE82FFF27E7FDF0954D815E816F81B1
:100170007885181684F01D861E861F86188A8827A3
:1001800099278E1B9F0B04C07695679557954795C9
:100190008A95D2F728C0202F332727FD3095DB0121
:1001A000CA01022E04C0B695A795979587950A9423
:1001B000D2F78D879E87AF87B88B04C0440F551F39
:1001C000661F771FEA95D2F789819A81AB81BC813E
:1001D00004C0B695A795979587952A95D2F7482B91
:1001E000592B6A2B7B2B49875A876B877C872985FC
:1001F0003A854B855C856D857E85AF8598898A2F8C
:1002000060960FB6F894DEBF0FBECDBFCF91DF91E1
:100210000F91FF90EF900895EF92FF920F93DF936D
:10022000CF93CDB7DEB760970FB6F894DEBF0FBEA1
:10023000CDBFA82F002309F461C07E010894E11C02
:10024000F11C88E0F70111928A95E9F729833A8336
:100250004B835C836D837E83AF83988780E2801BB2
:10026000E82FFF27E7FDF09549815A816B817C815A
:10027000181684F019861A861B861C8688279927EB
:100280008E1B9F0B04C0440F551F661F771F8A9556
:10029000D2F728C0202F332727FD3095DB01CA0174
:1002A000022E04C0880F991FAA1FBB1F0A94D2F701
:1002B00089879A87AB87BC8704C0769567955795E1
:1002C0004795EA95D2F78D819E81AF81B88504C0AC
:1002D000880F991FAA1FBB1F2A95D2F7482B592BAD
:1002E0006A2B7B2B4D875E876F87788B29853A85B4
:1002F0004B855C856D857E85AF8598898A2F609654
:100300000FB6F894DEBF0FBECDBFCF91DF910F9136
:10031000FF90EF9008956091690170916A018EE7F6
:1003200091E00E941F030E94B90B60938F017093AC
:1003300090018093910190939201089580916B01B7
:1003400061E00E94020C8DE061E00E94020C8AE6EE
:1003500092E040E855E260E070E026E00E94180D6F
:100360008EE791E00E94560B08958F929F92AF9274
:10037000BF92CF92DF92EF92FF920F931F93CF9392
:10038000DF937C01DC011C968D909C901D978D91D4
:100390009C91BFEF8F3F9B0729F48AE692E060E0D3
:1003A00071E040C08130910529F48AE692E069E16C
:1003B00071E016C08230910529F48AE692E067E286
:1003C00071E00EC08330910529F48AE692E066E37D
:1003D00071E006C0049731F48AE692E064E471E0CB
:1003E0000E941D10F70144815581668177818AE65C
:1003F00092E020E130E00E94AA0F8AE692E062E5F6
:1004000071E00E941D10D70118966D917C9119978B
:100410008AE692E04AE050E00E940A108AE692E002
:1004200065E571E00E9420108AE692E06CE571E0DB
:100430000E941D108AE692E0B4014AE050E00E945A
:100440000A108AE692E062E671E00E941D1000E068
:1004500010E0C0E0D0E09EECA92E9FEFB92E82E321
:10046000C82ED12C33C0D7011A96ED91FC911B9761
:1004700000FF12C0EC0FFD1F808191818C9DB001A7
:100480008D9D700D9C9D700D11248AE692E04AE0CE
:1004900050E00E94B90F11C0EC0FFD1F80819181C7
:1004A0008A9DB0018B9D700D9A9D700D11248AE676
:1004B00092E04AE050E00E940A108AE692E066E686
:1004C00071E00E941D100F5F1F4F2296081519053D
:1004D00054F28AE692E068E671E00E942010DF9113
:1004E000CF911F910F91FF90EF90DF90CF90BF9031
:1004F000AF909F908F9008958EE791E06FE771E045
:100500000E943F0A892B09F446C00E94B90B209132
:100510008F01309190014091910150919201621BA5
:10052000730B840B950B6B3F71058105910528F1C9
:1005300020E030E080918D0190918E01892B11F4A3
:1005400021E030E030938E0120938D0160E0232B79
:1005500009F061E080916B010E94410C60E08091A4
:100560008D0190918E01892B09F061E08DE00E9450
:10057000410C8FE791E00E94B5010E94B90B609396
:100580008F017093900180939101909392018EE777
:1005900091E00E9424030895DF92EF92FF920F935F
:1005A0001F93CF93DF93EC01882777FD8095982FD9
:1005B0000E9437117B018C0120E030E040E45FE3D2
:1005C0000E94E71120E030E048E452E40E949C10D1
:1005D0000E940411C617D70714F4DD241CC0DD24C3
:1005E000C801B70120E030E040EA5FE30E94E71174
:1005F00020E030E048E452E40E949C1020E030E02B
:1006000040E85FE30E9434100E9404116C177D07DC
:1006100014F0DD24D3948D2D90E0DF91CF911F91C4
:100620000F91FF90EF90DF9008956C597F4F0E94DB
:10063000CC020895645670400E94CC0208956093E5
:10064000930110929501089582E080939401109295
:1006500060020895AF92BF92CF92DF92EF92FF9225
:100660000F931F93CF93DF936B01DB011A96CD910C
:10067000DC911B978A819B8168E273E20E941503DB
:10068000892B09F480C080916002843009F08CC00D
:100690008C819D816AEC78E00E941A03892B09F411
:1006A00083C08E819F8160E372E00E941503892BD5
:1006B00009F47AC0F601118610868FEF9FEFAFEF35
:1006C000BFEF84839583A683B78381E090E0918315
:1006D000808354C08C819D8164E971E10E941A037A
:1006E000892B09F450C02696EE24FF24870123E0CD
:1006F000A22EB12C8881998160E372E00E941503DB
:10070000892B09F440C08A819B8160E476E00E94D5
:100710001A03892B69F0EE0CFF1C001F111F81E0EA
:1007200090E0A0E0B0E0E82AF92A0A2B1B2B0CC0CD
:100730008A819B8160E372E00E941A03892B19F180
:10074000EE0CFF1C001F111F249691E4A916B104A2
:1007500029F0A2E0B0E0AA0EBB1ECCCF80E290E070
:10076000F60191878087D6011496ED92FD920D9344
:100770001C93179781E090E08D939C9321E030E0EB
:1007800040E050E004C020E030E040E050E0B9013B
:10079000CA01DF91CF911F910F91FF90EF90DF90F1
:1007A000CF90BF90AF90089580916002843458F349
:1007B00091CFAF92BF92CF92DF92EF92FF920F93C1
:1007C0001F93CF93DF936B01809160028A3108F40D
:1007D00080C0DB011A96CD91DC911B9788819981AD
:1007E000845F914080F4FB01118610868FEF9FEFAC
:1007F000AFEFBFEF84839583A683B78389E090E052
:100800009183808361C08A819B8160E679E00E9448
:100810001503892B09F45DC02696EE24FF24870179
:1008200062E0A62EB12C30C0229788819981229651
:1008300068E572E00E941A03892B79F18881998119
:1008400060EB74E00E941503892B69F0EE0CFF1C2D
:10085000001F111F81E090E0A0E0B0E0E82AF92A33
:100860000A2B1B2B0CC08881998168E572E00E94DD
:100870001503892B71F1EE0CFF1C001F111FA2E064
:10088000B0E0AA0EBB1E24968091600295012F5FF6
:100890003F4F90E0281739073CF2C5010197959525
:1008A0008795F601918780870C971CF41186108636
:1008B00010C0D6011496ED92FD920D931C931797DC
:1008C00082E090E08D939C9321E030E040E050E0A6
:1008D00004C020E030E040E050E0B901CA01DF91FF
:1008E000CF911F910F91FF90EF90DF90CF90BF902D
:1008F000AF900895AF92BF92CF92DF92EF92FF92A6
:100900000F931F93CF93DF936B01809160028A3125
:1009100008F489C0DB011A96CD91DC911B97888180
:1009200099818052934080F4FB01118610868FEFED
:100930009FEFAFEFBFEF84839583A683B78389E0F2
:1009400090E0918380836AC08A819B816CEA7DE01C
:100950000E941503892B09F466C08C819D816CEA85
:100960007DE00E941503892B09F45DC02896EE24D2
:10097000FF248701A3E0AA2EB12C30C022978881E2
:100980009981229666EB73E00E941A03892B79F114
:100990008881998160E679E00E941503892B69F0CE
:1009A000EE0CFF1C001F111F81E090E0A0E0B0E002
:1009B000E82AF92A0A2B1B2B0CC0888199816CEB41
:1009C00072E00E941503892B71F1EE0CFF1C001FD1
:1009D000111FA2E0B0E0AA0EBB1E24968091600217
:1009E00095012F5F3F4F90E0281739073CF2C50172
:1009F000019795958795F601918780870C971CF450
:100A00001186108610C0D6011496ED92FD920D93BA
:100A10001C93179789E090E08D939C9321E030E040
:100A200040E050E004C020E030E040E050E0B90198
:100A3000CA01DF91CF911F910F91FF90EF90DF904E
:100A4000CF90BF90AF9008956F927F928F929F92B8
:100A5000AF92BF92CF92DF92EF92FF920F931F93CC
:100A6000CF93DF934B0180916002823208F47AC009
:100A7000DB011A96CD91DC911B978A819B816EE5F3
:100A800071E00E941503892B09F46CC036E0A32E97
:100A9000B12CAC0EBD1EEE24FF24870122E0C22E35
:100AA000D12C37C0E5012297888199816EE977E0E2
:100AB0000E941503892B69F0EE0CFF1C001F111F0B
:100AC00081E090E0A0E0B0E0E82AF92A0A2B1B2B95
:100AD0000DC0888199816EEE72E00E941503892B0A
:100AE00009F440C0EE0CFF1C001F111FD5018D91B1
:100AF0009C916EE571E00E941A03E4E0F0E0AE0E16
:100B0000BF1E892B11F463010FC022E030E0C20E3A
:100B1000D31E36010894611C711C8091600290E024
:100B2000681679060CF4BECFC60101979595879596
:100B3000D40119969C938E93189740972CF419968C
:100B40001C921E9218970EC0F401E482F58206836F
:100B500017838AE090E09183808321E030E040E0D9
:100B600050E004C020E030E040E050E0B901CA01AC
:100B7000DF91CF911F910F91FF90EF90DF90CF9079
:100B8000BF90AF909F908F907F906F9008956F92DD
:100B90007F928F929F92AF92BF92CF92DF92EF920D
:100BA000FF920F931F93CF93DF93FB013A015901FB
:100BB0006801DA012D913C918485958528173907C4
:100BC00024F071E0E72EF12C56C0C901880F991F5F
:100BD0000284F385E02DE80FF91F80819181982E22
:100BE000892E20FD06C00CE91FEF51E0E52EF12C07
:100BF00004C004E610E0EE24FF24B8016C0D7D1D56
:100C0000892D982D0E94CC02892B19F021E030E02B
:100C100020C0E601CC0FDD1FB8016C0F7D1F892DB0
:100C2000982D0E94CC02892B19F022E030E011C0EF
:100C3000CC0DDD1D0C0F1D1F892D982DB8010E94B4
:100C4000CC02892B21F4EE24EA94FE2C14C023E07C
:100C500030E0F50180819181019691838083821734
:100C600093074CF011821082D3018D919C911197C2
:100C700001968D939C93C701DF91CF911F910F91A6
:100C8000FF90EF90DF90CF90BF90AF909F908F90AC
:100C90007F906F9008952F923F924F925F926F9244
:100CA0007F928F929F92AF92BF92CF92DF92EF92FC
:100CB000FF920F931F93DF93CF9300D000D000D00B
:100CC000CDB7DEB71C015B01809160028D3008F466
:100CD0007EC081E090E09A8389831C821B82A3E01E
:100CE0008A2E912C8C0E9D1EC1012E010894411C50
:100CF000511CA201940109E713E00E94C705892B4A
:100D000009F065C0C101B501A20194010E94C705A7
:100D1000019709F05CC0C101B501A20194010E94D4
:100D2000C705892B09F053C0CC24DD247601662445
:100D30007724C4018D829E832FC0C101B501A20119
:100D40002D813E8109E713E00E94C7054C01C101D6
:100D5000B501A2012D813E810E94C70521E08216C6
:100D6000910479F4892B99F5CC0CDD1CEE1CFF1C49
:100D700081E090E0A0E0B0E0C82AD92AEA2AFB2A64
:100D800008C0892821F5019711F5CC0CDD1CEE1C5B
:100D9000FF1C0894611C711C8091600290E0298105
:100DA0003A81281739074CF2D50119967C926E9238
:100DB0001897F501C482D582E682F78283E090E03D
:100DC0009183808321E030E040E050E004C020E0E7
:100DD00030E040E050E0B901CA0126960FB6F89421
:100DE000DEBF0FBECDBFCF91DF911F910F91FF905E
:100DF000EF90DF90CF90BF90AF909F908F907F90BB
:100E00006F905F904F903F902F9008952F923F9258
:100E10004F925F926F927F928F929F92AF92BF920A
:100E2000CF92DF92EF92FF920F931F93DF93CF93B6
:100E3000CDB7DEB728970FB6F894DEBF0FBECDBF93
:100E40001C014B01DB011C968D919C911D9718167E
:100E500019060CF0C4C081E090E09A8389831A9649
:100E60000D911C911B97F801828193816AE67AE0CB
:100E70000E941503892B09F4B2C082E090E09A83A6
:100E80008983D80114968D919C91159769E773E039
:100E90000E941A03892B09F4A2C083E090E09A8390
:100EA00089831C821B8203E0A02EB12CAC0EBD1ED8
:100EB000C101B4013E010894611C711CA30195019C
:100EC0000CEB11E00E94C705892B09F088C0C10115
:100ED000B401A30195010E94C705019709F07FC0E5
:100EE00044245524CC24DD247601C501AD829E83A3
:100EF000C3016F82988756C0C101B4014F815885E4
:100F00002D813E810CEB11E00E94C7053C01B3E04E
:100F10004B16510461F4C101B4014F8158852D81F4
:100F20003E810E94C7056816790609F058C0C101C4
:100F3000B4014F8158852D813E810CEB11E00E9458
:100F4000C7055C01E3E04E16510459F4C101B40138
:100F50004F8158852D813E810E94C705A816B9068C
:100F6000F1F56114710489F4F1E0AF16B104B9F53B
:100F7000CC0CDD1CEE1CFF1C81E090E0A0E0B0E09A
:100F8000C82AD92AEA2AFB2A0AC091E06916710404
:100F900031F5AB2821F5CC0CDD1CEE1CFF1C0894B0
:100FA000411C511C29813A81D4011C968D919C9140
:100FB0001D97281739070CF49FCF19965C924E9213
:100FC0001897F401C482D582E682F78284E090E02B
:100FD0009183808321E030E040E050E004C020E0D5
:100FE00030E040E050E0B901CA0128960FB6F8940D
:100FF000DEBF0FBECDBFCF91DF911F910F91FF904C
:10100000EF90DF90CF90BF90AF909F908F907F90A8
:101010006F905F904F903F902F9008956F927F92C6
:101020008F929F92AF92BF92CF92DF92EF92FF92F8
:101030000F931F93CF93DF937B01FB01C285D38571
:101040008A819B816EEA7DE00E941503892B09F459
:1010500074C08C819D8166ED76E00E941503892B1A
:1010600009F46BC0269600E010E0DD24CC2499241E
:1010700088247724662483E0A82EB12C8881998166
:1010800066EF71E00E941503892B09F456C08A812E
:101090009B816CED74E00E941A03892B69F0980122
:1010A0004D2D5C2D692D782D872D962D01E00E9408
:1010B0000C01022F016013C08A819B8160E971E0FD
:1010C0000E941A03892BC9F198014D2D5C2D692DC1
:1010D000782D872D962D01E00E940C01022F132FF1
:1010E000D42EC52E962E872E782E692E2496F1E6C4
:1010F000AF16B10429F082E090E0A80EB91EBECF71
:10110000C801F70104839583468357839801872D8F
:10111000962D00E20E948D00C901F701228393837E
:1011200087E090E09183808380E390E091878087DF
:1011300021E030E040E050E004C020E030E040E05A
:1011400050E0B901CA01DF91CF911F910F91FF903B
:10115000EF90DF90CF90BF90AF909F908F907F9057
:101160006F9008958F929F92AF92BF92CF92DF922D
:10117000EF92FF920F931F93CF93DF936B018091B8
:101180006002823209F0B2C0DB011A96CD91DC9187
:101190001B978A819B8168E572E00E941503892B69
:1011A00009F4A4C08091600221E030E0281B3109DD
:1011B000220F331FC21BD30B8881998168E572E02F
:1011C0000E941503892B09F491C0F601118610863F
:1011D0008FEF9FEFAFEFBFEF84839583A683B78335
:1011E00088E090E09183808369C0809160028132C1
:1011F00008F469C0D50114968D919C91159760EA09
:101200007FE00E941A03892B09F45DC0E501269650
:10121000EE24FF24870133E0832E912C888199816D
:1012200068E572E00E941503892B09F44CC08A819D
:101230009B8160E476E00E941A03892B69F0EE0C32
:10124000FF1C001F111F81E090E0A0E0B0E0E82A41
:10125000F92A0A2B1B2B0CC08A819B8166E272E063
:101260000E941A03892B79F1EE0CFF1C001F111F3D
:10127000A2E0B0E08A0E9B1E2496B3E28B16910486
:1012800069F6E6E4F0E0AE0EBF1ED5018D919C91AB
:1012900068E572E00E941503892BA9F080E190E0D7
:1012A000F60191878087D6011496ED92FD920D93F9
:1012B0001C93179788E090E08D939C9321E030E099
:1012C00040E050E004C020E030E040E050E0B901F0
:1012D000CA01DF91CF911F910F91FF90EF90DF90A6
:1012E000CF90BF90AF909F908F900895F601A28409
:1012F000B384D50112968D919C91139760E47FE1A0
:101300000E941503892B09F070CFDDCF2F923F92F9
:101310004F925F926F927F928F929F92AF92BF9205
:10132000CF92DF92EF92FF920F931F93DF93CF93B1
:1013300000D0CDB7DEB71B01FB01848595858630D3
:1013400091052CF420E030E040E050E081C0F5EC65
:10135000AF2EFDE9BF2EFCE1CF2EF1E8DF2EE6E057
:101360004E2E512C9C01220F331F3A83298359C0E2
:10137000F101A285B385F2013497EA0FFB1FE080EB
:10138000F180A40DB51D6D917C9180E090E00E94EC
:1013900035113B014C0100E010E0C801B7010E948B
:1013A00035117B018C012DEC3CEC4CE45FE30E9499
:1013B000E7119B01AC01C401B3010E94981088237E
:1013C0001CF400E010E018C0C401B3012DEC3CECAB
:1013D0004CE45FE30E94E7119B01AC01C801B70137
:1013E0000E949810082F112707FD10950027110F54
:1013F000001F11270F5F1F4FC601B50123E931E020
:1014000040E051E00E944A125801CC24B7FCC0943D
:10141000DC2CA626B726C826D92622E030E0420ECC
:10142000531E89819A814816590609F0A1CFF1010E
:10143000A482B582C682D78280E290E091878087BD
:101440008FEF9FEF9183808321E030E040E050E018
:10145000B901CA010F900F90CF91DF911F910F91A9
:10146000FF90EF90DF90CF90BF90AF909F908F90C4
:101470007F906F905F904F903F902F9008950F93C3
:101480001F93CF93DF938C01EB0188E991E09B8759
:101490008A87809160028C871D86809194018530B7
:1014A00009F057C0C8010E942A0361157105810522
:1014B000910509F051C0C801BE010E94D903611510
:1014C00071058105910509F047C0C801BE010E9460
:1014D0007A046115710581059105F1F5C801BE0118
:1014E0000E9424056115710581059105A9F5C801C2
:1014F000BE010E944B06611571058105910561F5DC
:10150000C801BE010E94060761157105810591059C
:1015100019F5C801BE010E940E086115710581050B
:101520009105D1F4C801BE010E94B2086115710590
:101530008105910589F4C801BE010E9486096115E3
:1015400071058105910541F482E080939401109228
:10155000600220E030E002C021E030E0C901DF910C
:10156000CF911F910F9108951F920F920FB60F9276
:1015700011242F933F934F935F936F937F938F9398
:101580009F93AF93BF93EF93FF93809193010E943A
:10159000950C482F80919601909197010196909318
:1015A00097018093960180916002843618F085E05F
:1015B00080939401809194018330D1F0843020F4A1
:1015C000823009F059C006C0843071F1853009F0CD
:1015D00053C04CC0442309F04FC0809196019091B4
:1015E00097018436910508F443C0109260021EC032
:1015F000413009F041C080916002E82FF0E0209175
:10160000960130919701EE0FFF1FED56FE4F368386
:1016100025838F5F8093600210929701109296014C
:1016200084E08093940128C04423B9F4809160023F
:10163000E82FF0E02091960130919701EE0FFF1F07
:10164000ED56FE4F368325838F5F809360021092A4
:1016500097011092960183E0E4CF809196019091DA
:1016600097018536910540F085E0DBCF442321F4D6
:10167000109297011092960180919501882329F08C
:10168000442311F42D9A01C02D98FF91EF91BF9141
:10169000AF919F918F917F916F915F914F913F910A
:1016A0002F910F900FBE0F901F901895F89492E015
:1016B0009093B0009093B10084E68093B300E2EB86
:1016C000F0E01082E08190937000789482E0809343
:1016D0009401109260028091930160E00E94020CDC
:1016E00008951F920F920FB60F9211242F933F93DC
:1016F0008F939F93AF93BF93809165029091660201
:10170000A0916702B0916802309169020196A11D13
:10171000B11D232F2D5F2D3720F02D570196A11DD0
:10172000B11D209369028093650290936602A09395
:101730006702B09368028091610290916202A09169
:101740006302B09164020196A11DB11D80936102F4
:1017500090936202A0936302B0936402BF91AF9131
:101760009F918F913F912F910F900FBE0F901F90DF
:1017700018958FB7F89420916502309166024091D8
:101780006702509168028FBFB901CA010895789429
:1017900084B5826084BD84B5816084BD85B5826076
:1017A00085BD85B5816085BDEEE6F0E08081816014
:1017B0008083E1E8F0E01082808182608083808114
:1017C00081608083E0E8F0E0808181608083E1EBEC
:1017D000F0E0808184608083E0EBF0E080818160D4
:1017E0008083EAE7F0E0808184608083808182608A
:1017F0008083808181608083808180688083109273
:10180000C1000895CF93DF93482F50E0CA01865658
:101810009F4FFC0134914A575F4FFA01849188230E
:1018200069F190E0880F991FFC01E859FF4FA591DD
:10183000B491FC01EE58FF4FC591D491662351F449
:101840002FB7F8948C91932F909589238C9388814E
:1018500089230BC0623061F42FB7F8948C91932FD9
:10186000909589238C938881832B88832FBF06C012
:101870009FB7F8948C91832B8C939FBFDF91CF916E
:101880000895482F50E0CA0182559F4FFC012491D2
:10189000CA0186569F4FFC0194914A575F4FFA0147
:1018A0003491332309F440C0222351F1233071F0E5
:1018B000243028F42130A1F0223011F514C0263054
:1018C000B1F02730C1F02430D9F404C080918000F9
:1018D0008F7703C0809180008F7D8093800010C03F
:1018E00084B58F7702C084B58F7D84BD09C0809197
:1018F000B0008F7703C08091B0008F7D8093B000DF
:10190000E32FF0E0EE0FFF1FEE58FF4FA591B491CB
:101910002FB7F894662321F48C919095892302C007
:101920008C91892B8C932FBF0895682F70E0CB0189
:1019300082559F4FFC012491CB0186569F4FFC019D
:1019400044916A577F4FFB019491992319F420E049
:1019500030E03CC0222351F1233071F0243028F4D0
:101960002130A1F0223011F514C02630B1F027301B
:10197000C1F02430D9F404C0809180008F7703C077
:10198000809180008F7D8093800010C084B58F7718
:1019900002C084B58F7D84BD09C08091B0008F776F
:1019A00003C08091B0008F7D8093B000892F90E0BC
:1019B000880F991F84589F4FFC01A591B4918C9179
:1019C00020E030E0842311F021E030E0C9010895E7
:1019D000DC015C968C915C97FD01E80FF11DE35AE8
:1019E000FF4F20815C968C915C9790E001968F73FD
:1019F00090705C968C935C975696ED91FC915797FE
:101A000020835096ED91FC91519780818064808372
:101A10005B969C915B975C968C915C97981739F4D8
:101A20005296ED91FC91539780818F7D808308952C
:101A3000DF92EF92FF920F931F93CF93DF93EC010E
:101A40007A018B01D22EE889F98982E080834030C7
:101A500081EE580780E0680780E07807A1F060E039
:101A600079E08DE390E0A80197010E94691221506E
:101A7000304040405040569547953795279580E136
:101A80002030380798F0E889F989108260E874E816
:101A90008EE190E0A80197010E9469122150304028
:101AA000404050405695479537952795EC85FD85E4
:101AB0003083EE85FF852083188EEC89FD89D082E6
:101AC000EA89FB89808180618083EA89FB89808142
:101AD00088608083EA89FB89808180688083EA89C5
:101AE000FB8980818F7D8083DF91CF911F910F9142
:101AF000FF90EF90DF900895FC01218D828D30E002
:101B0000205C3F4F281B31092F733070C9010895A5
:101B1000FC01918D828D981719F42FEF3FEF06C0CD
:101B2000828DE80FF11D858D282F30E0C9010895C1
:101B3000DC0159969C9159975A968C915A9798170F
:101B400019F42FEF3FEF10C05A968C915A97FD0170
:101B5000E80FF11D958D5A968C915A978F5F8F7370
:101B60005A968C93292F30E0C9010895CF93DF93C3
:101B7000EC01888D882361F419C08C9185FF0AC01F
:101B8000E889F989808185FF05C0CE010E94E80CB3
:101B9000AA89BB898C9185FD05C0E889F989808176
:101BA00086FD04C00FB607FEE8CFF4CFDF91CF91DA
:101BB00008950F931F93CF93DF93EC01062F9B8D16
:101BC0008C8D981791F5E889F989808185FF2DC062
:101BD000EE89FF896083E889F98980818064808348
:101BE0001DC00FB607FC08C0E889F989808185FF10
:101BF00003C0CE010E94E80C8C8D181791F38B8DD9
:101C0000FE01E80FF11DE35AFF4F00831B8FEA89A5
:101C1000FB8980818062808381E0888F81E090E011
:101C2000DF91CF911F910F9108951B8D1F5F1F733F
:101C3000E3CF81EA9EE0892B51F080E090E0892B90
:101C400031F00E94A10E882311F00E940000089537
:101C50001F920F920FB60F9211242F938F939F9381
:101C6000EF93FF93E0917A02F0917B02808182FDF5
:101C700016C0E0918002F091810220819091830250
:101C80009F5F9F7380918402981771F0E0918302A7
:101C9000F0E0E659FD4F258F9093830205C0E09157
:101CA0008002F0918102E081FF91EF919F918F91ED
:101CB0002F910F900FBE0F901F90189510926D02EC
:101CC00010926C0288EE93E0A0E0B0E080936E0288
:101CD00090936F02A0937002B093710281E791E03C
:101CE00090936B0280936A0285EC90E09093770268
:101CF0008093760284EC90E090937902809378024E
:101D000080EC90E090937B0280937A0281EC90E0EB
:101D100090937D0280937C0282EC90E090937F020E
:101D200080937E0286EC90E0909381028093800203
:101D30001092830210928402109285021092860201
:101D400008958AE692E00E947C0D20E0892B09F03C
:101D500021E0822F08951F920F920FB60F92112447
:101D60002F933F934F935F936F937F938F939F93A3
:101D7000AF93BF93EF93FF938AE692E00E94E80C43
:101D8000FF91EF91BF91AF919F918F917F916F9153
:101D90005F914F913F912F910F900FBE0F901F9029
:101DA0001895CF93DF930E94C70B0E949E01C9E153
:101DB000DEE00E947C022097E1F30E94190EF9CF29
:101DC000CF92DF92EF92FF920F931F93CF93DF9307
:101DD0007C016B018A01C0E0D0E00FC0D6016D919B
:101DE0006D01D701ED91FC910190F081E02DC701CB
:101DF0000995C80FD91F015010400115110571F741
:101E0000CE01DF91CF911F910F91FF90EF90DF9066
:101E1000CF900895EF92FF920F931F938C01DC01F6
:101E2000ED91FC910190F081E02D6DE009957C0130
:101E3000D801ED91FC910190F081E02DC8016AE09C
:101E400009959C012E0D3F1DC9011F910F91FF9017
:101E5000EF900895CF93DF93EC016115710519F4AC
:101E600020E030E00FC0DB010D900020E9F7119772
:101E7000A61BB70BE881F9810280F381E02DAD014B
:101E800009959C01C901DF91CF9108954F925F920E
:101E90007F928F929F92AF92BF92CF92DF92EF92FA
:101EA000FF920F931F93DF93CF93CDB7DEB7A19728
:101EB0000FB6F894DEBF0FBECDBF2C01742ECB0140
:101EC000223008F42AE019A231E2C32ED12CCC0E24
:101ED000DD1E822E9924AA24BB24672D752FA5010F
:101EE00094010E94691279018A01C801B701A50114
:101EF00094010E944A12472D461B0894C108D1083C
:101F00004A3014F4405D01C0495CF6014083E1149D
:101F1000F1040105110521F07E2C5F2DC801DDCFF4
:101F2000C201B6010E942A0FA1960FB6F894DEBF37
:101F30000FBECDBFCF91DF911F910F91FF90EF901A
:101F4000DF90CF90BF90AF909F908F907F905F90E9
:101F50004F900895DC012115310541F4ED91FC917C
:101F60000190F081E02D642F099508950E94460F9D
:101F70000895EF92FF920F931F939A017B0100E067
:101F800010E0B801A7010E94AA0F1F910F91FF90C6
:101F9000EF900895CF92DF92EF92FF920F931F93ED
:101FA000CF93DF93EC016A017B012115310541F4E8
:101FB000E881F9810190F081E02D642F09951FC01F
:101FC0002A303105D1F477FF17C0E881F9810190FB
:101FD000F081E02D6DE209958C0144275527BA0167
:101FE0004C195D096E097F09CE012AE00E94460F57
:101FF0009801280F391F04C02AE00E94460F9C0157
:10200000C901DF91CF911F910F91FF90EF90DF9069
:10201000CF900895EF92FF920F931F937B019A0147
:102020000027F7FC0095102FB801A7010E94CA0FE6
:102030001F910F91FF90EF9008950E942A0F08952D
:10204000EF92FF920F931F937C010E942A0F8C0145
:10205000C7010E940A0F080F191FC8011F910F9195
:10206000FF90EF9008955058BB27AA270ED075C156
:1020700066D130F06BD120F031F49F3F11F41EF4A3
:102080005BC10EF4E095E7FB51C1E92F77D180F3F6
:10209000BA17620773078407950718F071F49EF565
:1020A0008FC10EF4E0950B2EBA2FA02D0B01B901B4
:1020B00090010C01CA01A0011124FF27591B99F0BE
:1020C000593F50F4503E68F11A16F040A22F232FCA
:1020D000342F4427585FF3CF469537952795A7951A
:1020E000F0405395C9F77EF41F16BA0B620B730BC1
:1020F000840BBAF09150A1F0FF0FBB1F661F771F32
:10210000881FC2F70EC0BA0F621F731F841F48F4E6
:10211000879577956795B795F7959E3F08F0B3CF6C
:102120009395880F08F09927EE0F97958795089556
:10213000D9D008F481E008950CD00FC107D140F048
:10214000FED030F021F45F3F19F0F0C0511139C1D9
:10215000F3C014D198F39923C9F35523B1F3951B18
:10216000550BBB27AA2762177307840738F09F5FB8
:102170005F4F220F331F441FAA1FA9F333D00E2E27
:102180003AF0E0E830D091505040E695001CCAF794
:1021900029D0FE2F27D0660F771F881FBB1F261759
:1021A00037074807AB07B0E809F0BB0B802DBF012C
:1021B000FF2793585F4F2AF09E3F510568F0B6C045
:1021C00000C15F3FECF3983EDCF386957795679509
:1021D000B795F7959F5FC9F7880F911D96958795DD
:1021E00097F90895E1E0660F771F881FBB1F6217FC
:1021F00073078407BA0720F0621B730B840BBA0BBA
:10220000EE1F88F7E095089504D06894B111D9C005
:102210000895BCD088F09F5790F0B92F9927B751F7
:10222000A0F0D1F0660F771F881F991F1AF0BA959A
:10223000C9F712C0B13081F0C3D0B1E00895C0C079
:10224000672F782F8827B85F39F0B93FCCF3869590
:1022500077956795B395D9F73EF4909580957095ED
:1022600061957F4F8F4F9F4F0895E89409C097FB6A
:102270003EF490958095709561957F4F8F4F9F4F5D
:102280009923A9F0F92F96E9BB279395F6958795A1
:1022900077956795B795F111F8CFFAF4BB0F11F464
:1022A00060FF1BC06F5F7F4F8F4F9F4F16C088230B
:1022B00011F096E911C0772321F09EE8872F762F41
:1022C00005C0662371F096E8862F70E060E02AF082
:1022D0009A95660F771F881FDAF7880F969587956E
:1022E00097F90895990F0008550FAA0BE0E8FEEF43
:1022F00016161706E807F907C0F012161306E407CA
:10230000F50798F0621B730B840B950B39F40A26C2
:1023100061F0232B242B252B21F408950A2609F4A0
:10232000A140A6958FEF811D811D089597F99F67A4
:1023300080E870E060E008959FEF80EC089500244D
:102340000A941616170618060906089500240A941A
:1023500012161306140605060895092E0394000CA0
:1023600011F4882352F0BB0F40F4BF2B11F460FF2F
:1023700004C06F5F7F4F8F4F9F4F089557FD905858
:10238000440F551F59F05F3F71F04795880F97FB39
:10239000991F61F09F3F79F08795089512161306F3
:1023A0001406551FF2CF4695F1DF08C01616170622
:1023B0001806991FF1CF8695710561050894089557
:1023C000E894BB2766277727CB0197F908950BD0B0
:1023D000C4CFB5DF28F0BADF18F0952309F0A6CFF7
:1023E000ABCF1124EECFCADFA0F3959FD1F3950FA9
:1023F00050E0551F629FF001729FBB27F00DB11D89
:10240000639FAA27F00DB11DAA1F649F6627B00D18
:10241000A11D661F829F2227B00DA11D621F739F01
:10242000B00DA11D621F839FA00D611D221F749F0F
:102430003327A00D611D231F849F600D211D822F56
:10244000762F6A2F11249F5750408AF0E1F088239D
:102450004AF0EE0FFF1FBB1F661F771F881F9150AA
:102460005040A9F79E3F510570F060CFAACF5F3F63
:10247000ECF3983EDCF3869577956795B795F795DD
:10248000E7959F5FC1F7FE2B880F911D9695879565
:1024900097F90895629FD001739FF001829FE00D2C
:1024A000F11D649FE00DF11D929FF00D839FF00DD3
:1024B000749FF00D659FF00D9927729FB00DE11D7F
:1024C000F91F639FB00DE11DF91FBD01CF0111245C
:1024D0000895A1E21A2EAA1BBB1BFD010DC0AA1F65
:1024E000BB1FEE1FFF1FA217B307E407F50720F07D
:1024F000A21BB30BE40BF50B661F771F881F991FF8
:102500001A9469F760957095809590959B01AC0140
:10251000BD01CF010895EE0FFF1F0590F491E02D4E
:062520000994F894FFCFBE
:10252600436F756C64206E6F74206465636F6465B9
:10253600206D657373616765004465636F646564E8
:10254600204E45433A20004465636F64656420531A
:102556004F4E593A20004465636F646564205243C8
:10256600353A20004465636F646564205243363A09
:1025760020002028002062697473290052617720A8
:102586002800293A20002000000B0004000000006B
:0E25960000D90DE00E7C0D980D880DB60D00DD
:00000001FF
